:10000000002A0020311800002D18000005180000FB
:1000100000000000000000000000000000000000E0
:100020000000000000000000000000002D1800008B
:1000300000000000000000002D180000711B0000EF
:100040002D1800002D1800002D1800002D1800009C
:100050002D1800002D1800002D180000D9110000E7
:10006000E9110000F9110000091200001912000046
:100070002912000095070000A5070000B507000041
:10008000C5070000D5070000E5070000F5070000E0
:10009000050800002D1800002D1800002D18000084
:1000A0002D18000008B5064B064803331B1A062B13
:1000B00000D808BD044B002BFBD09847F9E7C04699
:1000C000DC7E0000DC7E00000000000008B5074870
:1000D000074B1B1A9B10DA0FD318591000D108BD1B
:1000E000044A002AFBD09047F9E7C046DC7E0000B6
:1000F000DC7E00000000000010B5074C2378002BC8
:1001000009D1FFF7CFFF054B002B02D0044800E0D8
:1001100000BF0123237010BDC808002000000000AC
:10012000DC7E000008B5094B002B03D008480949C4
:1001300000E000BF08480368002B03D0074B002BEA
:1001400000D09847FFF7C2FF08BDC046000000007E
:10015000DC7E0000CC080020DC7E000000000000F7
:1001600030B58BB001AA642301930023137113747B
:1001700080218903916001214942918113771362A3
:10018000164BD381164B5361164B9361164C201CB2
:100190001649174B9847246823691A04FCD422682F
:1001A000022313432360104D2868124B98471F23E6
:1001B000184001238340181C0F4B1860E888002367
:1001C000102105E00133834202D31023238202E091
:1001D00022690A42F6D00BB030BDC046102700009D
:1001E000030008000300090060090020001000421D
:1001F000210A0000AD11000000E100E070B588B0F8
:1002000007AD0843287000236B7004A94F200880B5
:1002100001244C804D600B724B728B7201AC2080BC
:100220006280029523726372A372074E301C074BE3
:100230009847301C211C064B9847287800026B78A1
:10024000184308B070BDC04660090020E10B0000F3
:10025000A10B000010B584B003AC08432070190A4C
:100260006170A3704F2369460B8001324A8001946C
:1002700000230B724B728B720248034B984704B0F9
:1002800010BDC04660090020C10B000038B5041C39
:10029000012000210122231C034DA8476404A40F60
:1002A000024B1C7038BDC04655020000E408002017
:1002B00010B50020002102222D4B9847011C01227D
:1002C000030402D54004410CFF222A4B1B78012B6A
:1002D00012D0002B04D0022B1AD0032B24D02FE0F5
:1002E000C90989B252B2101C4843234B9847174B97
:1002F000154A224CA04725E0890989B252B2101C48
:1003000048431D4B9847124A124B1C4CA04719E01A
:10031000490989B252B2101C4843174B98470E4AFC
:100320000E4B164CA0470DE0090989B252B2101CC1
:100330004843114B98470A4A0A4B104CA04701E02A
:1003400009480A4910BDC046000000000000E03F17
:10035000000000000000D03F000000000000C03F8F
:10036000000000000000B03F00000000000000009E
:10037000FD010000E4080020892B00006526000034
:10038000F0B55F4656464D464446F0B48DB0051C68
:100390000C1C161C2960081C794B98472168052302
:1003A000CA0700D5E3E022681C23970700D5DEE0EA
:1003B000744B196A821C012797403A1C0A431A623F
:1003C0000BA9737F0B700D30C7B2381C6E4B98476A
:1003D000381C6E4B9847707F00216D4B9847F37A1D
:1003E0006B71337DAB71737DEB712F680397381C94
:1003F000634B98470D3000226B46DA82316889469C
:10040000F2689246B37D98467368002B13D0802221
:10041000520593422BD1F37D002B01D02A682AE0AC
:100420003769C0B25B4B9847011C381C6A461632CC
:10043000594B98471CE0F37D002B09D01023009303
:100440003069B1696A4616320023544FB8470FE04D
:1004500031698B46C0B24F4B9847011C1023009363
:1004600058466A46163200234C4FB84700E0002039
:10047000031E7CD1D2E713691804FCD46B461633F3
:100480001B88039F7B815146484601437268114394
:1004900047467B071943F37D002B01D10423194301
:1004A000307D4004737D1B041843F27AB37A134302
:1004B00018433389FF2B03D0802252041143184381
:1004C000337F002B03D1364B1B689A0301D5802361
:1004D00019432A6813691F04FCD4039F78602A68B3
:1004E00013691804FCD4039F39600AAB80221A7088
:1004F00000225A7001219970DA70306A0690716A90
:100500000791B26A0892F66A099600271E1CF9B292
:10051000BB0006AA9858002802D1201C214B9847FE
:10052000411C05D03070000CC0B2311C1E4A9047EF
:100530000137042FEBD10023AB60EB602B61AB6183
:100540006B610022EB83AB832023EA542123EA541E
:100550002223EA542323EA542868094B9847041CB1
:100560001249134B9847A400124BE5500023181C66
:100570000DB03CBC90469946A246AB46F0BDC04685
:100580003511000000040040F91600006916000053
:10059000590F000015170000710E0000A10E000099
:1005A00000200041A90F0000D5170000010600003F
:1005B00071110000A8090020931C9B001950012311
:1005C00093401A1C2023C15C0A43C2547047C046A2
:1005D00010B51723002A11D0C469240C0523002C60
:1005E0000CD1C4791C23002C08D00368C28381611C
:1005F00005212322815401225A730023181C10BDA7
:10060000F8B580004B4BC5582C6823691904FCD4FD
:10061000E668360CE3681B041B0E1E402123EB5CCE
:100620002022AA5C171C1F40F20720D5EB691B0C87
:100630001BD0AB691A78D2B2591CA961697901291A
:1006400004D1597809020A430233AB61D305DB0DAB
:100650002383EB691B0C013B9BB2EB83002B06D180
:10066000012323730223637301E001232373B30780
:1006700009D50223237300222323EA54F90702D564
:10068000281CAA689047730752D5EB699BB2002BD0
:100690004CD02369DBB2590725D09A0708D51A2216
:1006A0002223EA54226992B202231343238214E0E4
:1006B000590708D51E222223EA54226992B2042344
:1006C0001343238209E0DA0707D513222223EA54D1
:1006D000226992B20123134323827B0728D52B6919
:1006E000281C984724E0A269D205D20DD3B26969CB
:1006F0000B706B69591C69616979012904D1120A6F
:100700005A706B6901336B61EB699BB2013B9BB221
:10071000AB83002B0CD10423237300222223EA5441
:10072000BA0705D5EB68281C984701E0042323731A
:10073000F8BDC046A809002038B58000144BC45845
:100740002368DD682D0C237E1D40637E1D40EA0773
:1007500005D5201CA3689847012322689373AB0733
:1007600005D5201CE2689047022322689373EB06AC
:1007700005D5201C22699047102322689373AB068D
:1007800005D5201C62699047236820229A7338BDE2
:100790008809002008B50020014B984708BDC046D5
:1007A0003907000008B50120014B984708BDC04635
:1007B0003907000008B50220014B984708BDC04624
:1007C0003907000008B50320014B984708BDC04613
:1007D0003907000008B50420014B984708BDC04602
:1007E0003907000008B50520014B984708BDC046F1
:1007F0003907000008B50620014B984708BDC046E0
:100800003907000008B50720014B984708BDC046CE
:1008100039070000026813691904FCD47047C04608
:100820000368DA68910306D502229A731B699A0756
:100830000BD541200CE01A69510708D55968C02230
:1008400092020A435A60182002E0002000E00020D3
:100850007047C04630B5026800230124022504E039
:1008600001339BB20189994209D9D168090C21420F
:1008700007D1D168090C2942F2D0002002E01220F1
:1008800000E0002030BDC046F8B55F4656464D46F4
:100890004446F0B4061C894605684C880B885B000A
:1008A00001221343DBB22B752B4B9847031C69685D
:1008B0002A4A0A406A60002B47D1301C284B9847CF
:1008C0008346002841D1013CA4B200229046254F26
:1008D00020E02B69990637D5002C07D16A68802360
:1008E000DB0213436B60013CA4B213E0301C1E4AD0
:1008F0009047434601339BB29A46AB6949464968E3
:1009000042468B54301C144A9047013CA4B2002844
:1009100003D1D046BC42DCD101E0D0468346B37A55
:10092000002B07D0301C104B98476A68C0239B02ED
:1009300013436B60301C0C4B9847AA6949464B68BF
:1009400041465A54584600E041203CBC90469946E6
:10095000A246AB46F8BDC04655080000FFFFFBFFAE
:1009600021080000FFFF000015080000F0B55F46F9
:1009700056464D464446F0B483B0061C0F1C05682D
:100980004C88244B98473B885B00DBB22B75301CAE
:10099000214B9847031C002B35D1301C1F4B984727
:1009A000019000282FD1A046002420239946194AFF
:1009B0009346194B9A4610E02B694A46134221D0C0
:1009C000301CD8477A68135D2B76301CD04700283E
:1009D00006D12B6901345A0704D44445ECD103E015
:1009E000019001E01E230193B37A0198002B0AD0F5
:1009F000301C084B98476A68C0239B0213436B6006
:100A0000019800E0412003B03CBC90469946A246C4
:100A1000AB46F0BD15080000550800002108000095
:100A2000F0B5474680B482B0071C0C1C151C396019
:100A3000081C4E4B9847061C4D4B196A821C01201E
:100A40009040021C0A431A6201A92B790B700D36E3
:100A5000F6B2301C474B9847301C474B98472879D3
:100A60000021464B984723681C209A077AD42368B4
:100A70000520DA0776D438683C4B98469847061C20
:100A80003F49404B9847B6003F4BF75000233B7619
:100A90007B7600267B83BB832522BE543B621423D6
:100AA00023603C68201CC047804680236A46137040
:100AB000567001239370D6706869AE69002803D11F
:100AC000201C0021314B98476B46187002225A7047
:100AD000030CD8B269462E4B9847002E04D1201C37
:100AE00001212A4B9847061C6A4616700223537050
:100AF000360CF0B26946264B9847AB89FB80EB89F0
:100B00003B812A7C8023002A04D1224B1B689B0353
:100B1000DB0FDB01AA68002A00D013432A7F002ADA
:100B200002D08022D20513432A6A002A00D0134340
:100B300022681343236080235B00636040460D30CE
:100B4000C0B2154B98472B68FA21C90059434B1E78
:100B50001818124B9847431F4020FF2B02D8DBB2D6
:100B60006381002002B004BC9046F0BD3511000046
:100B700000040040F916000069160000590F00003B
:100B8000B50C000071110000A8090020A90F000099
:100B9000D51700000020004115170000811B000040
:100BA00008B5C26992B20523002A04D101238372D9
:100BB000024B9847031C181C08BDC046890800005A
:100BC00008B5C26992B20523002A04D101238372B9
:100BD000024B9847031C181C08BDC0466D09000055
:100BE00008B5C26992B20523002A04D1002383729A
:100BF000024B9847031C181C08BDC0466D09000035
:100C0000026813691904FCD47047C04670B5041C0F
:100C100005688669360CC3699BB2F61AB6B2C36919
:100C20009BB2013B9BB28383C3699BB2002B0FD164
:100C30006A688023DB0213436B60837A002B0BD03E
:100C40000A4B98476A68C0239B0213436B6003E01A
:100C50006A68074B13406B60201C044B9847236A5B
:100C60009E19AB69DBB2337070BDC046010C000049
:100C7000FFFFFBFF70B5041C05682B695A0703D5FD
:100C80001E222523C25411E08669360CC3699BB22B
:100C9000F61AB6B2C3699BB2013B9BB28383044B85
:100CA0009847236A9E193378DBB22B7670BDC04615
:100CB000010C000070B58000694BC4582568A66916
:100CC0003604360EA3691E40A3691B0C35D1E369B7
:100CD0009BB2002B31D0EB68DA0307D50123AB734D
:100CE0002B699A0702D541222523E2542B695A0722
:100CF0000FD518222523E2540023A383A37A002BC7
:100D000007D0201C574B98476A68C0239B021343A7
:100D10006B60E3699BB26383636A1B041B0E052B44
:100D20004FD1636ADBB2002B03D1201C4E4B984796
:100D300047E0201C4D4B984743E0A3691B0C27D08C
:100D4000E3699BB2002B23D1636A1B041B0E052BA6
:100D50001ED1636ADBB2002B1AD103232B7300234D
:100D6000638325230022E254A37A002B08D0201CA1
:100D70003C4B98476A68C0239B0213436B6001E0B9
:100D80000123AB73F3071CD5E368201C984718E0D8
:100D9000A3691B0C15D0E3699BB2002B11D02B6902
:100DA0009A0603D441222523E2540AE0636ADBB2A7
:100DB000002B03D1201C2C4B984702E0201C2B4B0E
:100DC0009847A3691B0C26D0E3699BB2002B22D164
:100DD000636A1B041B0E052B1DD1636ADBB2012B5A
:100DE00019D103232B730023638325230022E254AC
:100DF000B30707D5636ADBB2012B03D12369201C3B
:100E0000984708E0F20706D5636ADBB2002B02D1EF
:100E1000E368201C9847636A1B041B0E052B1DD03A
:100E2000636A1B041B0E19D003232B7300236383F7
:100E3000A383636A1B041B0E412B0AD0A37A002BE9
:100E400007D0201C074B98476A68E023DB02134356
:100E50006B60730702D56369201C984770BDC0465C
:100E6000A8090020010C0000750C00000D0C00000A
:100E700038B5151C4C08402384420BD34300081C92
:100E8000191C054B9847013880B24023FF2801D830
:100E900028800023181C38BD811B000000000000C2
:100EA000F8B5071C0D1C161C06AA10783A1C424304
:100EB00040248A4240D2002B13D100213A1C224CFC
:100EC000A047011C00202A1C0023204CA0471D4DD8
:100ED0001B4C221C2B1C121A8B41120C1B041A4394
:100EE00026E00022012B23D14C0FCD0000213A1C1B
:100EF0000023154FB847021C0B1C281C211C134C47
:100F0000A047C208124B9A420FD901380123104959
:100F1000C2088A4205D90133DBB20138082BF7D168
:100F200009E04024082B01D106E000235B031A43AB
:100F30003280002400E04024201CF8BDC046C0469A
:100F40000000000001000000DD1C00009D1C0000EE
:100F5000FF1F0000C046C04610B582B0041C0F4BF6
:100F60001B78002B01D000290DD001A90C700C209A
:100F70000B4B98470C200B4B9847084B5C70012299
:100F80001A70002007E0054B5A781D20141B621EC2
:100F900094416442204002B010BDC046E8080020E1
:100FA000F916000069160000444B984233D006D869
:100FB000434B98420DD0434B98421BD06FE0424BBD
:100FC00098424AD0414B984258D0414B984266D102
:100FD00032E0012965D0002904D0022906D0032976
:100FE00006D001E03B4867E0002065E03A4863E056
:100FF0003A4861E0012956D0002904D0022906D0E0
:10100000032906D001E0032056E0002054E03448D4
:1010100052E0344850E0012947D0002904D0022989
:1010200006D0032906D001E02F4845E0002043E028
:101030002E4841E02E483FE0012938D0002904D055
:10104000022906D0032906D001E02A4834E0002016
:1010500032E0294830E029482EE0012929D0002932
:1010600004D0022906D0032906D001E0244823E059
:10107000002021E023481FE023481DE001291AD069
:10108000002904D0022906D0032906D001E01F4818
:1010900012E0002010E01E480EE01E480CE0002088
:1010A0000AE01D4808E01D4806E01D4804E01D4810
:1010B00002E01D4800E01D487047C0460010004295
:1010C00000080042000C004200180042001C0042D0
:1010D00000140042030004000300060003000700A0
:1010E00003001E0003001F000300080003000A00A5
:1010F00003000B00030010000300120003001300A4
:1011000003000C0003000E0003000F000300160094
:10111000030018000300190003000500030001008C
:10112000030009000300110003000D000300170075
:101130007047C04670B586B00C4A6B4670CA70C323
:1011400032CA32C3009E864206D001239A00694605
:101150005258824203D100E00023D8B203E00133A9
:10116000062BF3D1002006B070BDC046D07B000036
:10117000F0B50A4B1B78002B0CD1094F094E0A4DD4
:101180000024DE515A1914600433182BF9D10122BE
:10119000024B1A708000024BC150F0BDEC080020D9
:1011A000F008002031110000A809002010B582B01D
:1011B000041C6846054918310622054B9847201C37
:1011C000044B98476B46185602B010BDD07B000008
:1011D000F53300003511000008B5024B1B680020F4
:1011E000984708BDF008002008B5024B5B68012055
:1011F000984708BDF008002008B5024B9B68022004
:10120000984708BDF008002008B5024BDB680320B2
:10121000984708BDF008002008B5024B1B69042060
:10122000984708BDF008002008B5024B5B6905200F
:10123000984708BDF00800200C4B1B68002B10D10C
:10124000EFF31083002B09D172B6BFF35F8F00223A
:10125000074B1A700122074B1A7002E00022054B5F
:101260001A70024B1A6801321A6070470809002090
:10127000000000200C090020084B1A68013A1A608F
:101280001B68002B09D1064B1B78002B05D00122CF
:10129000044B1A70BFF35F8F62B6704708090020D5
:1012A0000C09002000000020F0B583B001AC01253E
:1012B00065700027A77025700E20211C064EB047D0
:1012C0008022D201054B9A61277065700F20211C86
:1012D000B04703B0F0BDC046E11200000044004139
:1012E00000B583B001AB80221A700A785A704A7830
:1012F0009A708A78DA70191C014B984703B000BDC8
:10130000D517000008B507282BD88000174B1B58AD
:101310009F468020000227E0154BD86824E0154B3B
:10132000186A8005800F144BC340181C1CE0104B3A
:10133000186919E00E4B1B680220184014D00D49A3
:101340001022CB681A42FCD0094B1B685A070AD5F9
:1013500000200A4B9847064B9B681B041B0C584304
:1013600002E0002000E0064808BDC046F07B000017
:10137000100900200008004000127A001517000034
:10138000006CDC0270B50C4B1C6A017885784078E3
:101390000122104080014026B44304432A40D0017A
:1013A00080229443221C0243032001400902034887
:1013B00002400A431A6270BD00080040FFFCFFFFB4
:1013C00007283DD880001F4B1B589F46002038E05F
:1013D0001D4B196A02220A431A62002031E01A4B9F
:1013E000996902220A439A6100202AE0164B1A6981
:1013F00092B202210A431A82002022E0124B5A695B
:1014000092B202210A439A8200201AE00F4B196817
:1014100002220A431A601A680D4B1A400A4B9A843A
:10142000191C1022CB681A42FCD0084A9168064B5E
:10143000D96251689962126892B29A84002000E0E1
:1014400017207047107C00000008004010090020A1
:101450007FFF000030B585B0144A154B9A60154BDC
:101460005A681E218A435A6003A80024447001254B
:1014700085700470104B98470620104B9847104B0E
:101480009847104B1C725C729C7201956A465470AE
:101490000623137014725472002069460A4B984751
:1014A00000200A4B984705B030BDC04610360000FA
:1014B000000800400040004185130000C1130000F7
:1014C000D114000000040040F5140000A515000030
:1014D000064B996908220A439A610122044B1A704B
:1014E000191C0B681342FCD17047C0460004004031
:1014F000000C0040F8B5061C071C0D782D020543B2
:101500004B78002B02D08023DB021D434B7A002B4B
:1015100002D080231B031D434C68012C17D9631E86
:101520001C420FD1022C06D90223002201325B009B
:101530009C42FBD800E000221702374380235B0364
:101540001D4304E02702374380239B021D430B7A8F
:10155000002B02D080239B031D430E4A13681904FD
:10156000FCD40D4B98470D4B1E700A490B681A04AA
:10157000FCD4084B9F601A1C13681904FCD4054B5B
:101580005968802252020A4015435D60044B984717
:10159000F8BDC046000C004039120000080C0040A5
:1015A0007912000010B5041C0A4A13681904FCD40F
:1015B000094B9847094B1C70064A13681904FCD460
:1015C000044B5968802252020A435A60044B9847E0
:1015D00010BDC046000C004039120000040C004051
:1015E0007912000070B5041C184A13681904FCD461
:1015F000174B9847174B1C70144A13681904FCD4F6
:10160000124E7068C004C00E134B9847051C114B56
:101610001C707668F602F60F104B1C700B4A1368AC
:101620001904FCD4094B9C682402240C0C4B9847E9
:10163000002E07D1012C07D9281C211C094B9847E3
:10164000051C01E00134E540281C70BD000C004081
:1016500039120000040C004005130000080C004083
:1016600079120000811B000010B5041C064B98473E
:10167000064B1C70064B1968090C8022D2010A43E4
:101680005A80044B984710BD39120000020C0040EC
:10169000000C00407912000010B5041C104B984754
:1016A000104B1C70104B18680001000F59880F4A2E
:1016B0000A405A801A68120C0D490A405A80191CB7
:1016C0008022D2010B681B0C1342FBD1064B010296
:1016D0005888064A02400A435A80064B984710BD74
:1016E00039120000020C0040000C0040FFF0FFFF28
:1016F000FFBFFFFF7912000010B50C7824020443ED
:10170000024B9847A4B2024B5C8010BD99160000B2
:10171000000C004010B5041C064B9847064B1C708B
:10172000064B1C682401240F054B9847201C054BD1
:10173000984710BD39120000020C0040000C004018
:1017400079120000E515000030B5D4780023002C94
:101750001ED11378802B04D01B06802464022343FF
:1017600000E0002354780225AC430AD19478002C81
:1017700003D18024A402234302E0C024E4022343D3
:1017800041605478013CE4B2012C01D8104C234054
:101790000D042D0CA024E4052C431C4384620D0C85
:1017A000D02424062C431C438462D478002C0DD111
:1017B0005C0305D59378012B01D1816100E0416183
:1017C0005378013BDBB2012B00D8816030BDC046AD
:1017D000FFFFFBFF08B5031C0A1CC10900200029FC
:1017E00003D15809C001044940181F210B400121B1
:1017F0009940024B984708BD00440041491700003A
:101800007047C046FEE7C04608B5044B9847044BF6
:101810009847044B9847044B984708BD551400005F
:10182000A91200000118000001180000FEE7C046E0
:1018300010B5194B194A9A4203D0194B164A9A42CD
:1018400004D3184B184A9A4210D31BE0174B144884
:101850000330C01A80080130800000230E490F4A6F
:10186000D458CC5004338342FAD1EAE70E4B1A1D08
:101870000C490331891A890889005218002102C3D2
:101880009342FCD10A4B7F210A4A8A439A600A4B51
:1018900098470A4B9847FEE700000020DC7E0000D6
:1018A000C4080020FC090020C80800200400002013
:1018B00000ED00E000000000A9330000191A00004C
:1018C000064B1B68002B02D1054A044B1A60034AE1
:1018D000136818181060181C7047C04624090020AF
:1018E000002A00208022D201014BDA617047C046F5
:1018F0000044004108B5034803490522034B9847BB
:1019000008BDC046C0090020E4090020D105000040
:1019100000B583B0084B196A802212010A431A628B
:1019200001A900230B701420044B98471420044B8A
:10193000984703B000BDC04600040040F9160000FF
:101940006916000070B58CB08023DB05009300237E
:101950000193FF2269460A818B72CB7201220A75BC
:101960004A758B75CB7506930B774B77E1235B023A
:101970000493C4239B03039301235B4208930993BD
:10198000114B0A93114B0B93114E124D124C301CFC
:10199000291C6A46A0470028F9D10D4D2C68201C4F
:1019A0000E4B98471F23184001238340181C0C4BF3
:1019B00018602A6813691904FCD4226802231343AF
:1019C00023600CB070BDC046020018000200190070
:1019D000C00900200014004281030000AD11000086
:1019E00000E100E038B5084C201C08490022084DF1
:1019F000A847201C07490122A8472123E15C0322B4
:101A00000A43E25438BDC046C0090020E518000072
:101A1000B9050000F5180000F0B54F4680B4A6B037
:101A20003D4B98473D4B98473D4B98473D4B98471A
:101A30003D4B3E4A5A603E4A106A0002000AC021ED
:101A400009060143116200249C6007221A60394B89
:101A50009847394B98471AA9384A0B1C61CA61C389
:101A600061CA61C361CA61C321CA21C312881A80D5
:101A700033482E22334B98476D4666352C80032021
:101A800000210222304EB047288019AD2C80022060
:101A900000210222B0472880C020C0012B4B98476C
:101AA0002B4E2C488146FA22920033689342FCD98F
:101AB000C847041C0D1C154B134A274FB847002874
:101AC00003D1264B1C605D600BE0244F201C291CB9
:101AD0000F4A104B224CA047386080231B06C918C0
:101AE00079601E4B1A685B6868461E491E4CA04709
:101AF000134869466422134B98470022144B1A601E
:101B0000D1E7C046C046C04600000000000000000B
:101B1000000000000000604009180000551400009B
:101B2000610100001119000010E000E03F1F0000FB
:101B300000ED00E045190000E5190000447C0000BC
:101B4000C0090020D1050000FD0100008D02000049
:101B500028090020B10200004D1C0000F0090020FF
:101B60008D1D0000307C000059340000C046C04686
:101B7000024B1A6801321A607047C04628090020DB
:101B8000002934D00123002210B488422CD3012430
:101B90002407A14204D2814202D209011B01F8E7C5
:101BA000E400A14204D2814202D249005B00F8E77E
:101BB000884201D3401A1A434C08A04202D3001BAA
:101BC0005C0822438C08A04202D3001B9C082243DD
:101BD000CC08A04202D3001BDC082243002803D01B
:101BE0001B0901D00909E3E7101C10BC704700284D
:101BF00001D00020C04307B4024802A1401802905F
:101C000003BDC046190000000029F0D003B5FFF75E
:101C1000B9FF0EBC4243891A1847C0467047C046F8
:101C20008446101C62468C46191C634600E0C04680
:101C30001FB500F093FC002801D40021C8421FBD4D
:101C400010B500F0C7FB4042013010BD10B500F0E8
:101C500085FC002801DB002010BD012010BDC0461E
:101C600010B500F07BFC002801DD002010BD012034
:101C700010BDC04610B500F0F7FB002801DC0020C5
:101C800010BD012010BDC04610B500F0EDFB0028CE
:101C900001DA002010BD012010BDC046002B11D17B
:101CA000002A0FD1002900D1002802D00021C94309
:101CB000081C07B4024802A14018029003BDC046A8
:101CC0005DFFFFFF03B4684601B5029800F044F8D9
:101CD000019B9E4602B00CBC7047C0469C46030464
:101CE000F0B51B0C17043F0C150C1E1C041C000C3B
:101CF0007E436B4347434543FB18300C181887421B
:101D000002D980235B02ED18030CED1863465C4397
:101D10004A433604360CA118000480194919F0BD55
:101D2000F0B583B0161C1F1C0090019100F088FFD5
:101D3000041C0D1C221C2B1C301C391CFFF7CEFF71
:101D4000009A019B121A8B410899201C0A604B6073
:101D5000291C03B0F0BDC046F0B583B0141C1D1C97
:101D60000090019101F044F9221C2B1C061C0F1C51
:101D7000FFF7B4FF009A019B121A8B410899301C9F
:101D80000A604B60391C03B0F0BDC046F8B55F4631
:101D9000564644464D46F0B40C034D00CE0F610A42
:101DA000440F2143C400180380465800400D82466A
:101DB000D80F84464046400A530F0343D0006D0DB0
:101DC000371C83465246664500D1A4E0AF1A002F67
:101DD00000DC09E1002A3BD1184300D0EAE06307A8
:101DE00000D187E00F232340042B00D182E0221D85
:101DF000A242A4416442802309191B040B40371CF2
:101E0000141C002B00D17CE0CE4B01359D4200D14B
:101E100005E1CD4BE40819404807490204430B0B88
:101E2000002000211B031A0B0B0D6D051B0513432E
:101E30006A08C64DFF071D4015436D006D08291C3B
:101E40003943201C3CBC90469946A246AB46F8BD9F
:101E5000BC488542C3D0802000040343382F00DDF6
:101E6000F0E01F2F00DD24E12020C01B1A1C81465A
:101E700082405846F8400243944658464A469040AD
:101E8000421E9041FB40624602431F1CA21A94422C
:101E9000A4416442C91B091B141C0B029FD54902B3
:101EA0004F0A002F00D1C8E0381C00F0ABFE021C26
:101EB000083A1F2A00DDB5E02821091A201C9740A6
:101EC000C84007439440954200DDB2E0551B691CB1
:101ED0001F2900DDDCE01F22551B3B1C221CAB40F0
:101EE000CA40AC40651EAC411343CF401C43391C73
:101EF000002574E780231B040B40371C002B00D007
:101F000082E7904B4807E4080443C9089D4248D043
:101F100009030B0B84E7AA1A9446002A00DC98E018
:101F20005046002852D08748854200D157E780208C
:101F3000000403436246382A00DDFCE01F2A00DD6E
:101F40004AE120226046101A1A1C824082469146BD
:101F500058466246D0404A4602439046584652464A
:101F60009040421E9041424602436046C3401219CF
:101F7000A242A441644259180919141C080200D451
:101F80002DE7704B01359D4200D122E16E4B600878
:101F90001940012323401C1C0443CB071C43490860
:101FA0001DE7231C0B433AD080231B030B431B0369
:101FB0001B0B35E7013F002F65D15846221A94428A
:101FC000A4416442C91A091B141C66E75846184309
:101FD00000D104E70122524294446046002800D018
:101FE000C5E058460219C3E7002F73D1681C4005AD
:101FF000400D012800DCDEE05A46A21A9442BF419F
:10200000C81A7F42C71B380200D489E05A46141B05
:10201000A3459241591A52428F1A664641E700235E
:102020000024FDE6271C283887400024954200DC68
:102030004CE74549AD1A3940D1E6201C00F0E2FDDD
:10204000203034E75A461A43531E9A41D2B2002731
:102050001CE7002A00D0DCE0681C4205520D012A72
:1020600000DC8DE0374DA84200D1F3E05D462A192F
:10207000A242A441644259180919CC0752081443DA
:102080004908051CABE62F48854200D0E6E6A6E6E7
:102090002B1C1F3B3A1CDA40131C20296CD03F221A
:1020A000551BAF403C43601E84411C43002100256A
:1020B00095E6381C20381A1CC240101C202F5DD019
:1020C0004022D71BBB405A461A43531E9A41024333
:1020D0000027DBE6002D3BD01A4DAA4500D193E046
:1020E00080252D047F422943382F00DDACE01F2FCF
:1020F00000DD29E12025ED1B081C261CA840FE4020
:10210000AC400643651EAC413443F9405D462C1B90
:10211000A34592415B1A5242991A55466646BCE65F
:10212000131C3B43141C002B00D0BAE600270021EF
:1021300000240025E5E65A461A43531E9A41D2B2BE
:10214000002314E7FF070000FFFF7FFFFFFF0F8062
:102150000D1C254358D0FF43002F51D1041BA3452C
:102160009241591A5242891A5546664695E6964852
:10217000854200D0DEE632E6002793E70023A2E79F
:10218000081C2043002D00D0C4E0002800D1F7E057
:102190005846184300D122E658460219A242A441EB
:1021A000644259180919141C0A0200D417E6874B17
:1021B0000125194013E6081C2043002D39D10028C1
:1021C00071D15946194303D0191C5C46664606E690
:1021D00000270021002494E6604620381A1CC240E3
:1021E00060469146202800D1ACE04022121A93406C
:1021F0005A461A43531E9A414B461A430023B6E6E9
:10220000714DAA4500D06FE7191C5C4655466646DD
:10221000E5E5002D22D10D1C254377D0D543002DB7
:1022200071D15C445C459241591852428918554617
:10223000A4E600284DD15946194300D194E0191C59
:102240005C466646604DCAE50C43611E8C41E4B2B3
:1022500000215BE7051C0021002452E65A4DAA45E7
:1022600054D05542802210040143382D00DD81E016
:102270001F2D00DD92E02022501B0A1C8446824064
:10228000201CE8400243904662469440601E844110
:1022900042461443E9405C445C459241CB185242AB
:1022A000991855466AE65846184300D197E55846AE
:1022B000271ABC429241C81A5242801A020266D5BD
:1022C0005846041BA3459241591A5242891A664640
:1022D00085E55846184333D04807E4080443802076
:1022E000C9080003014208D0DD08054205D159465E
:1022F000CA085C071443291C6646630FC9001943CA
:10230000E400314D6BE5304A9245AED1191C5C4674
:10231000554664E5002836D05846184310D080252D
:102320004807E408C9082D0304432942E5D0D8082A
:102330002842E2D15D46EA085C071443011CDCE751
:10234000214D4CE5002353E73D1C203D0A1CEA408B
:10235000151C202F34D04026F71BB9400C43611EBA
:102360008C412C430021D1E60824002718496442FF
:10237000154DC6E50C43611E8C41E4B200218AE78D
:10238000191C5C462BE5191C5C460F4D27E5031C08
:102390003B4300D11CE7011C3C1C20E520204042AF
:1023A00040190A1CC2409046202D0BD04020451BEE
:1023B000A9400C43611E8C4145462C4300216AE72D
:1023C0000021CBE70021F4E7FF070000FFFF7FFFBC
:1023D000FFFF7F00F0B55F4656464D464446F0B4D9
:1023E0000D1C041C8046E80F814618030F03000BE8
:1023F0003F0B83B084461B48009749005E00DF0F07
:10240000490D9246760DBB4681420CD01548864256
:1024100010D00120B14215D003B03CBC9046994683
:10242000A246AB46F0BD009F01202743F4D10D48E2
:102430008642EED1604602430120002AECD1012001
:10244000B142E9D1009B6345E6D1D045E4D1D945FD
:1024500006D00029E0D11C43201C441EA041DBE72C
:102460000020D9E7FF070000F0B55F4656464D460D
:102470004446F0B4CD0FDE0FAC461D032D0BB14624
:10248000354E0F034C00AB465D0080463F0B640D9C
:1024900092466D0DB44231D02F4EB54234D0002C4F
:1024A0000ED1384341424141081C002D0BD0002978
:1024B00019D1CC452CD06646002E17D1012017E04B
:1024C000002DF6D1281C59460A4353425341002897
:1024D00006D1002BEDD065460120002D08D005E087
:1024E0000020002B04D14B46002BE7D101204042B5
:1024F0003CBC90469946A246AB46F0BD3E1C064306
:10250000CAD002204042F3E75E461643C7D0F8E740
:10251000AC4205DC09DA6346002BE7D00120E7E78F
:1025200061460029E2D10120E2E75F4508D80CD0DE
:1025300000205F45DCD26646002ED7D00120D7E7C9
:102540006546002DD2D10120D2E7D045F8D8002031
:10255000D045F0D3CCE7C046FF070000F0B55646A3
:102560004D4644465F46F0B40D1C83B0041C0190F8
:10257000E80F814618030F03000B3F0B84463848D1
:10258000009749005E00DF0F490D9246760DB84670
:10259000814233D03248864235D0002917D0002EF0
:1025A0001ED1341C67463A4353425341002C1ED07F
:1025B0000020002B04D14046002816D101204042C3
:1025C00003B03CBC90469946A246AB46F0BD00988D
:1025D000044360426041041C002EE3D00028EAD18D
:1025E000C14515D04F46002FE8D10120E8E7002B68
:1025F000F6D04B460120002BE2D0DFE7009F0220FF
:102600002743DDD1C6E7674602201743D8D1C4E788
:10261000B14204DD48460028D0D10120D0E7B142C4
:1026200004DA4B46002BC9D00120C9E7009F67455B
:1026300009D80DD0009F00206745C1D24F46002F1A
:10264000BCD00120BCE74B46002BB7D10120B7E737
:1026500001985045F7D8019B00205345EED3AFE7D2
:10266000FF070000F0B5564644465F464D46F0B4BD
:102670001F1C0B031B0B9A464B0087B0041C8046A3
:102680005B0DC80F161C02938146002B68D0694B66
:102690000299994232D08022534652031A43D20003
:1026A000630F1A439246644AE000891880460291FB
:1026B000002400253B031B0B9B467800FB0F321CBC
:1026C000400D039300D175E05A4B984269D08022A7
:1026D000594652030A43730FD2001A43564B93468E
:1026E000C018F200002303994E4671401C430F2C82
:1026F00000D9ABE0514EA4003459A74653461C43C1
:1027000000D087E00025AA46A84608240225D1E784
:102710004946022D6CD0032D00D119E2012D00D0C5
:102720005AE10D40EDB20024A9460023A046002046
:10273000002125030A0D1C052D0B1205404B2A43D1
:10274000134023435B004C465B08E207191C4046DC
:10275000114307B03CBC90469946A246AB46F0BD3B
:102760005346234350D05346002B00D186E15046B8
:1027700000F048FA031E272B00DD78E128210D1A0E
:10278000211C083B5246E9409A400D1C1543221C6F
:102790009A40AA4690462B4B00241B1A0293002510
:1027A00088E75B461E430323002E9CD1B3460022DC
:1027B000022398E75B46334321D05846002800D1D6
:1027C00050E100F01FFA272800DD44E128210F1A0C
:1027D000021C311C083A5B46F94093400F1C1F4312
:1027E000331C9340BB461A1C164B181A00237AE779
:1027F00001230B4000249946A0460E4B97E7002783
:10280000BB46002201236EE7002104248A46884645
:1028100001254FE70C2403254CE701235B420025EB
:102820009846A946084C034B81E7DA46904603993F
:102830001D1C6EE7FF07000001FCFFFF747C000019
:10284000FFFF0F800DFCFFFFFFFF0F00029F160C24
:10285000381804904046070C0004000C1204120CB7
:10286000031C5343041C3D1C7443554398463B1CB6
:1028700073436419A44644460293230C63449D4267
:1028800004D9029D802464022D1902951D0C039524
:1028900045462C041B04240C1C1905945C46230C8F
:1028A000051C58432404240C8446381C60436543AB
:1028B0005F438146CC44280C6044BB46814502D925
:1028C00080277F02BB442D04070C2D0C0004401907
:1028D0005546BC462F04E3448446280C3D0C2F1C6F
:1028E0005743B8462F1C77434243B94647463F0CEF
:1028F0009144BA46D14446434A4502D98022520205
:10290000B6184F463A0CB6183A0447463F043F0CF7
:10291000B8462F1C67435D434443584365190190F3
:10292000380C2D184244B846AC4204D90198802393
:102930005B02C0180190039C029F201C6044C019D8
:102940006045A44147466442A4462B043C04994692
:10295000240C4C44A046D8448018C246E24490421D
:102960009241574652429146F219E245BF417F4299
:102970004B46BC46D845BF41D4187F4263461F43EF
:102980002D0C7F19B24292414C45AD4152426D42ED
:102990001543019E7D19AB19E20D5B02059F1343A0
:1029A00042023A439A46531E9A41C30D101C1843E3
:1029B0006402204380465046C0010DD545460122A1
:1029C0005646049C6B082A401A43F30701341A4305
:1029D000760804949046B246049E634FF319002B88
:1029E00061DD404640070BD00F2244462240042AB6
:1029F00006D04246043242458041404282449046DD
:102A00005546ED0107D5594B5646049F80201E4080
:102A1000C000B2463B18564A934200DDE8E6444601
:102A20005546E2086807104301226C025B050A4024
:102A30008046240B5B0D914679E6DA4690461D1CD4
:102A400067E680242403574627421CD13C432403D5
:102A5000240B484B6BE6031C283B311C99408B46EA
:102A60000022C1E6301C00F0CDF82030ABE6283B58
:102A7000211C994000228A4690468CE6201C00F0DA
:102A8000C1F8203076E65846204207D10443039926
:102A90002403240B89469046364B48E63C432403E6
:102AA000240B344B43E6344B049E9B1B382B06DD32
:102AB00001230B4000249946A046002337E61F2B34
:102AC00025DC049C2D4D46466019524644468640FE
:102AD000DC4082405746301C2243DF40441EA04168
:102AE00002433B1C540709D00F201040042805D096
:102AF000101D9042924152429B18021C1D021AD591
:102B000001230B4000249946A04601230FE61C48F0
:102B1000049C5546001BC540281C202B16D0194E7E
:102B20005746A21997403A1C43461A43531E9A41EE
:102B300002430023D6E758075B02D2081C0B01238F
:102B40000B401043994680460023F0E50022EBE756
:102B50008024240350460123044319402403240BFA
:102B60008946044BE3E5C046FF030000FFFFFFFE7C
:102B7000FE070000FF07000002FCFFFF1E0400002C
:102B8000E2FBFFFF3E040000F8B5041E31D0C70F82
:102B900000D04442201C00F035F8184D2D1A0A28A8
:102BA00019DD0B38844024036D05240B6D0D3A1C90
:102BB0000026002000210B0D2403240B1B052343BA
:102BC0000F4C2D051C402C4364006408D307211CC6
:102BD000301C1943F8BD061C1536231CB3401E1CBF
:102BE0000B23181AC44024036D05240B6D0D3A1CE9
:102BF000DFE70022002500240026DAE71E0400009B
:102C0000FFFF0F801C2101231B04984201D3000CFD
:102C100010391B0A984201D3000A08391B0998424F
:102C200001D30009043902A2105C40187047C04665
:102C30000403020201010101000000000000000085
:102C4000F0B544465F4656464D46F0B41C1C85B070
:102C5000002900DAD9E00F1C0021061C8A46101C4E
:102C6000191C002C00DAC7E00196009089468046C6
:102C7000002950D1B84262D9FFF7C4FF002809D01B
:102C800020234546311C1B1A85408740D940A84661
:102C90000F4386404246140C13041B0C211C381CA5
:102CA0009B46FEF76DFF5B464343051C211C381C09
:102CB0009946FEF7A9FF330C08041843814509D94A
:102CC00040446B1E804500D977E1814500D874E10E
:102CD000023D40444946411A8946081C211CFEF722
:102CE0004FFF5A464243071C211C48469346FEF7B5
:102CF0008BFF36040904360C0E43B34507D946440E
:102D00007B1EB04502D8023FB34500D81F1C2D04DE
:102D10002F43002403E0B94260D900240027524623
:102D2000381C211C002A03D03B1C00215842A14121
:102D300005B03CBC90469946A246AB46F0BD002883
:102D400004D101200021FEF71BFF80464046FFF71B
:102D500059FF002860D1414644460B043C1B1B0C24
:102D6000A3460D0C00930124291C5846FEF708FFCA
:102D7000009F81464743291C5846FEF745FF330C08
:102D8000090419438F4208D94B464144013B884509
:102D900002D88F4200D925E19946C91B8B46081CF1
:102DA000291CFEF7EDFE009B291C4343071C5846D7
:102DB0000093FEF729FF3604009D0904360C0E43EC
:102DC000B54207D946447B1EB04502D8023FB54202
:102DD00000D81F1C49460B041F43A0E7081CFFF73F
:102DE00011FF041E70D1B94503D3009C019DAC4274
:102DF00093D80024012792E75246D243031C0C1CAF
:102E0000924600215842A1412EE7002746428F41B9
:102E1000012149428A4622E720231B1A4246351CDB
:102E200082403C1CDD40DC4087402B1C150C3B43A2
:102E3000291C8640201C009317049046FEF7A0FE34
:102E40003F0C011C794381468B46201C291CFEF750
:102E5000DBFE009C0904230C19438B450CD94B461F
:102E60004144013B884500D9BAE08B4500D8B7E022
:102E700002225242914441445C460C1B201C291CF6
:102E80000194FEF77DFE391C4143041C8B460198DA
:102E9000291CFEF7B9FE009A090413041B0C194300
:102EA0008B4509D94144631E884500D994E08B4580
:102EB00000D891E0023C41445B46CB1A49469B4610
:102EC0000B041C4300974FE7009D20231B1A4A4622
:102ED00000998240DD40154381403A1CDA40009160
:102EE000311C9046D9403A1C82400B1C134301937D
:102EF0002F0C2B041B0C391C40460293FEF740FE9E
:102F0000029A81464243391C40469346FEF77CFEB6
:102F1000019A0904130C19438B450AD94B464919E8
:102F2000013B8D425AD88B4558D902235B429944C4
:102F300049195A468A1A101C391C0392FEF720FEC2
:102F4000029B80464343391C03989B46FEF75CFE78
:102F5000019A090413041B0C19438B450AD94346F3
:102F60004919013B8D4235D88B4533D902235B4249
:102F7000984449195D464D1BAB464946009D0F04D8
:102F8000424617432A04120C3B042D0C1B0C380C30
:102F9000111C594342436B436843D3180D0C5B1912
:102FA0008C469A4202D98022520280181D0C401988
:102FB00083450CD303D00024B1E61D1C8AE6654688
:102FC0002A041B04120C9B18A6409E42F3D2013F18
:102FD0000024A4E69846CDE71C1C6DE79946A8E7B7
:102FE000994649E70222524291444144D5E6C046FF
:102FF000F0B55F4656464D464446F0B40D1C85B0CC
:10300000061C924698460290019103921F1C141CC4
:103010008346A946002B52D1AA426BD9101CFFF758
:10302000F1FD00280AD020231B1A311CD94085400D
:103030000B1C2B43864084409946B346250C230441
:103040001B0C291C48469846FEF79AFD4646071C6D
:103050004643291C4846FEF7D7FD5A460904130C7F
:1030600019438E4209D909197B1E8C4200D959E1B6
:103070008E4200D856E1023F0919891B8946081C77
:10308000291CFEF77DFD43464343061C291C484688
:103090009846FEF7B9FD5A46130409041B0C194360
:1030A000884508D90919731E8C4200D938E1023EBF
:1030B000884500D834E138043043002712E0019AF3
:1030C00093420DD8181CFFF79DFD041E66D1019B8D
:1030D0009F4200D221E1039F02998F4200D81CE158
:1030E00000270020391C05B03CBC90469946A246FA
:1030F000AB46F0BD002A04D101200021FEF740FDBF
:10310000041C201CFFF77EFD002800D0B6E023043D
:103110002D1B1B0CA946260C98460127311C48463E
:10312000FEF72EFD41464143051C8A464846311CA8
:10313000FEF76AFD5A460804130C1843824507D966
:1031400000196B1E844202D8824500D90DE11D1C76
:103150005346C31A181C311C9A46FEF711FD41460E
:103160004143814688465046311CFEF74DFD5A4684
:10317000130409041B0C194388450BD94B46091944
:10318000013B8C4200D9CFE0884500D8CCE0022337
:103190005B429944280449460843A3E720231B1AAD
:1031A000424657468240DF401743524682400192D2
:1031B000321CDA40291CD9408540131C2B43029352
:1031C0003D0C3B041B0C8846081C291C9A46FEF744
:1031D000D7FC534643438146291C40469B46FEF795
:1031E00013FD029A0904130C19438B4506D94B466B
:1031F000C919013B8F4200D8ABE099465A468A1A5A
:10320000101C291C9346FEF7BBFC53464343291C64
:10321000804658469A46FEF7F7FC029A09041504C0
:103220002D0C29438A4506D94346C919013B8F42D3
:1032300000D886E098465746CF1BBA464946019FBC
:103240000804424610433D042D0C03043F0C1B0CA4
:10325000020C291C594355437B437A43EB180F0C4E
:10326000DB198C469D4202D980277F02D2191D0CA2
:103270005219924562D359D0002733E720231B1AF5
:10328000311C2F1CD940DF4085400B1C84402B4350
:1032900086400193B3462304260C1B0C381C311CBA
:1032A0009846FEF76DFC42464243051C311C381C13
:1032B0009146FEF7A9FC019F09043B0C194389457F
:1032C00007D909196B1E8C424DD889454BD9023D4F
:1032D00009194A468A1A101C311C9246FEF750FC06
:1032E00043464343071C311C50469946FEF78CFC6D
:1032F000019A090413041B0C1943894507D90919BC
:103300007B1E8C422DD889452BD9023F09194B468B
:10331000CB1A2D0499462F4300E700270120E1E650
:103320001E1CC8E61F1CA8E6994633E761460A043E
:103330001B04120C9B18A6409E429DD20138002708
:10334000D0E68A4500D875E702235B429844C91944
:1033500071E78B4500D850E702235B429944C919B5
:103360004CE71F1CD3E71D1CB3E7023D0019EFE635
:1033700008B5011C0020021C031C01F041F808BD27
:1033800038B5074B074C1D1CE41AA410002C04D0C0
:10339000013CA300EB589847F8E704F093FD38BDD3
:1033A000D07E0000D47E000070B50E4B0E4D002480
:1033B000ED1AAD101E1CAC4204D0A300F358984780
:1033C0000134F8E704F074FD084B094D0024ED1AB0
:1033D000AD101E1CAC4204D0A300F3589847013432
:1033E000F8E770BDBC7E0000BC7E0000BC7E000023
:1033F000C47E000010B50023934203D0CC5CC454BB
:103400000133F9E710BD031C8218934202D01970F2
:103410000133FAE7704700000CB410B59CB002917C
:1034200006910C491EAB049107918224012104CB23
:10343000A40002AA49429481D181111C1E9A0193D1
:1034400000F02EF8029A002313701CB010BC08BCC8
:1034500002B01847FFFFFF7F0EB400B59CB01DAB54
:1034600004CB822202A992008A810A4A02908A60D1
:103470004A6101225242CA81074A086110681D9AB6
:10348000019300F00DF8029A002313701CB008BCE1
:1034900003B01847FFFFFF7F080000200000000076
:1034A000F0B5C5B01F1C0C9112920D9001F09EFF5B
:1034B00000681A9002F0EAFD0C9D1990AB8918067D
:1034C00012D5296900290FD10D98402101F0A6FFDE
:1034D00028602861002804D10D9D0C232B6000F08A
:1034E00082FF0C9D40236B61002334AC2794299309
:1034F00028931093169318931D931C931793129D62
:103500002B78002B03D112982E1A04D11DE0252B05
:10351000F9D00135F4E7299A1299B3182993289B19
:103520002160013366602893072B01DC083409E031
:103530000D980C9927AA02F0B1FD002801D000F0E7
:103540004DFF34AC179B9B1917932B78002B01D19F
:1035500000F03CFF6A4600237F3213700122524282
:1035600001350A9214931E1C681C2D7812900B953D
:103570000B982038582800D98EE303F0F9FB5B0044
:103580008D038D0369008D038D038D038D038D03E2
:103590008D036B0059008D03720075008D03A00030
:1035A000A200A200A200A200A200A200A200A2000B
:1035B000A2008D038D038D038D038D038D038D0379
:1035C0008D038D038D03D000FC008D03FC008D0363
:1035D0008D038D038D03B6008D038D036E028D0365
:1035E0008D038D038D038D03C2028D038D03640053
:1035F0008D038D038D038D038D038D038D038D034B
:103600008D038D03C5006000FC00FC00FC00B800C9
:1036100060008D038D03BA008D0355027002900285
:10362000C3008D03A0028D03C4028D038D03E3024A
:103630002B2302E0002B00D12023129D94E76A4641
:103640007F32137070E06A467F321370C64D7DE2A0
:10365000012207E03D6804371495002DEDDA6D4234
:10366000149504221643E8E7129D129A2D78013230
:103670000B952A2D01D000210DE0391D3F680A97D6
:10368000002F05DA1292012252420F1C0A92D4E74F
:103690000F1C1292D1E70B9812923038092806D8E5
:1036A0000A256943157809180B950132F3E70A9149
:1036B000002900DB5CE7012252420A9258E780228F
:1036C000D0E700251495149D0A2169430B9A129D99
:1036D000303A8A18013514922A1C013A1278129550
:1036E0000B92303A092AEED942E70822BAE7402283
:1036F000B8E7129D2A786C2A02D10135129501E0B3
:103700001022AFE72022ADE738686A462AAB0025D1
:103710007F3201211870157004370A91C9E26A4698
:103720007F32137010231E43B20609D5FB1D0722FA
:1037300093431F1C186859680837089009910AE0DC
:103740003B1D3A68F10602D4750600D512B2089204
:10375000D21709921F1C0998002800DB26E208985E
:103760000999002342428B41089209936B462D220E
:103770007F331A701AE26A460B9D7F321370FB1D6D
:1037800007229343139615951D681F1C16955B68B9
:10379000169818931899083702F032FC012812D1B4
:1037A000169818996F4B6E4AFEF750FA002803D00E
:1037B0006B462D227F331A700B9D472D01DC6B4D1C
:1037C0000DE06B4D0BE01698189902F019FC0028DB
:1037D0000AD10B9D472D01DC664D00E0664D80232C
:1037E0000E959E43032584E10A9D013509D00B9D6A
:1037F00020239D43472D06D10A9D002D03D101258D
:1038000000E006250A9580235B001E43189B002BD1
:1038100006DA189D8020000628180F902D2502E05A
:10382000189D0F9500251B950B9D20239D431195F9
:10383000462D04D0452D05D10A9D013503E00A9D92
:10384000032301E00A9D0223009321AB029322ABE4
:10385000039325AB049301950D98169A0F9B00F0E6
:10386000B7FE0E90119847280BD11399C90708D4B9
:10387000259D0E98219A2D1A1095119D472D36D110
:103880002BE00E98119940191090462912D10E9AEA
:103890001378302B0AD116980F99324B304AFEF725
:1038A000CFF9002802D101235D1B2195109D21989D
:1038B0002D18109516980F992A4B294AFEF7C0F932
:1038C000002801D0109D2595259B109DAB42CFD29D
:1038D0005A1C259230221A70F6E7D01C03DB0A9D91
:1038E000AA4200DC7EE00B9D023D0B9502E00B9DA1
:1038F000652D5EDC0B98551E23AB187021950133A6
:103900002B22002D01DA6D422D221A70092D35DD92
:1039100069469A310A910A9A281C0A21119203F0E9
:1039200087FA0A9B30311970281C0A2103F02AFA01
:10393000051C0A9801380A90092DECDC119A3035E3
:10394000013A6B4615708F33101C69469B315A1E25
:103950000133884219D201789A1E11700130F4E7C0
:103960000000000000000000EA7C0000DA7C00009B
:10397000DE7C0000E27C0000E67C000030226B462A
:103980008E33AD181A705D7024AA23AB109DD31A24
:103990005D190A95109D1C93012D04DC00251195DD
:1039A000139DED0736D50A9D01350A950025119521
:1039B00030E00B9D662D15D1131C0A9D002A08DDF1
:1039C000002D02D1139DED0720D50A9B0133D3189A
:1039D0001CE0002D03D1139D01231D4216D00A9B2C
:1039E000023313E0109D131EAB4206DB67251595CD
:1039F000139DED070AD5531C08E00123002A01DCC2
:103A000002239B1A109DEB1867251595159D1192A1
:103A10000B950A931B980025A84200D14EE16B46F6
:103A20002D227F331A7049E16A467F3213703B1DA5
:103A3000B10605D5179D3A68E917156051600AE08F
:103A4000F00605D4700603D53A68179D158002E08C
:103A50003A68179D15601F1C51E510231E43202353
:103A600033400AD0FB1D0722934318685968089019
:103A700009911F1C0837002393E0102131403A1DA3
:103A8000002907D14023334004D03F88099108978B
:103A9000171CF0E73F6809930897171C81E0396805
:103AA000002208910992302120AAC24D02231170F0
:103AB00078211E43517004371D950B9171E03B68CE
:103AC0000A9D0E930A986B4611957F3300250437A3
:103AD0001D70A84210DB0E98291C0A9A01F096FE70
:103AE000A84200D1E8E00E9D401B119D0A90A8421B
:103AF00000DD0A950025E0E00E9802F0C7FA0A9072
:103B0000DBE010231E432022324009D0FB1D072298
:103B100093431F1C186859680837089009910FE0F3
:103B2000102131403B1D002906D14022324003D0F4
:103B30003F880991089702E03F68099208971F1C87
:103B400001232EE06A467F329A4D137020221D9584
:103B5000324009D0FB1D072293431F1C1868596887
:103B60000837089009910FE0102131403B1D0029D2
:103B700006D14022324003D03F880991089702E0E5
:103B80003F68099208971F1C0223F10709D5089A7C
:103B9000099D2A4305D00B9D20AA30211170557034
:103BA0001E436A4600217F32117000E001230A9D06
:103BB000002D01DB80229643089A0998024302D126
:103BC0000A9D002D56D06D46CF35012B1ED0022BFD
:103BD0003AD008980723034030330999089A0E9584
:103BE0002B70099D4807D108EA08084309920890FC
:103BF000021C0E9D0998013D0243EAD1F10743D50D
:103C0000302B41D030220E952A703DE0099A002ACF
:103C100004D1089B092B01D8303333E00898099967
:103C20000A2200230E95FEF739F8089809993032D8
:103C30002A700A220023FEF731F8031C089009912C
:103C4000013D0B43EAD11FE00898099A1D990F2303
:103C50000340CB5C1107020909982B70030911433B
:103C6000099308910B1C09990E950B43013D002BFC
:103C7000EAD109E034AD0E95002B05D1F00703D54C
:103C8000013D30232B700E950E9934AB5B1A002248
:103C90000A9D11920A9311E06A460B9D7F321370C0
:103CA000002D00D192E32AAB1D7001200025157074
:103CB0000A9011950E9301E0051C11950A99139134
:103CC000A94200DA13956B467F331B785A1E934145
:103CD000139AD218022333401392159301D0023263
:103CE0001392842333401B9337D1149B13981B1AD0
:103CF0000F93002B31DD304B0F9A2360102A18DD13
:103D000010236360299B10332993289B0133289348
:103D1000072B01DC083408E00D980C9927AA02F063
:103D2000BDF9002800D059E334AC0F9910390F9138
:103D3000E1E72998626013182993289B013328939F
:103D4000072B01DC083408E00D980C9927AA02F033
:103D5000A5F9002800D041E334AC6B467F331A78D4
:103D6000002A15D0236001236360299B0133299326
:103D7000289B01332893072B01DC083408E00D98B9
:103D80000C9927AA02F08AF9002800D026E334AC67
:103D9000159900291BD020AB236002236360299B67
:103DA00002332993289B01332893072B06DC083420
:103DB0000DE0C046FB7C0000BA7C00000D980C9919
:103DC00027AA02F06BF9002800D007E334AC1B9A55
:103DD000802A38D1149B13981B1A0F93002B32DDC5
:103DE000C94B0F9A10332360102A18DD102363602B
:103DF000299B10332993289B01332893072B01DC3F
:103E0000083408E00D980C9927AA02F047F9002819
:103E100000D0E3E234AC0F9910390F91E0E7299814
:103E2000626013182993289B01332893072B01DC28
:103E3000083408E00D980C9927AA02F02FF9002801
:103E400000D0CBE234AC0A996D1A002D2FDDAE4BB9
:103E500010332360102D16DD10236360299B10336F
:103E60002993289B01332893072B01DC083408E0B1
:103E70000D980C9927AA02F011F9002800D0ADE2A4
:103E800034AC103DE3E7299A289B65600133AD18F7
:103E900029952893072B01DC083408E00D980C992C
:103EA00027AA02F0FBF8002800D097E234ACF30513
:103EB00003D40E9D25600A9DD7E00B9D652D00DC87
:103EC000B7E1169818998F4B8D4AFDF7B9FE002877
:103ED0005AD08E4B236001236360299B01332993C1
:103EE000289B01332893072B01DC083408E00D9848
:103EF0000C9927AA02F0D2F8002800D06EE234AC68
:103F00002198109DA84202DBF00700D414E21A9D0C
:103F100029982560199D2B182993289B65600133EA
:103F20002893072B01DC083408E00D980C9927AA88
:103F300002F0B4F8002800D050E234AC109D013DEE
:103F4000002D00DCF8E1704B10332360102D16DDDE
:103F500010236360299B10332993289B01332893F6
:103F6000072B01DC083408E00D980C9927AA02F011
:103F700095F8002800D031E234AC103DE3E72999F0
:103F800065606D18299544E1219A002A71DC5F4B28
:103F9000236001236360299B01332993289B01330C
:103FA0002893072B01DC083408E00D980C9927AA08
:103FB00002F074F8002800D010E234AC219B002BF2
:103FC00005D1109D002D02D1F00700D4B4E11A9D57
:103FD00029982560199D2B182993289B656001332A
:103FE0002893072B01DC083408E00D980C9927AAC8
:103FF00002F054F8002800D0F0E134AC21994D4291
:10400000002D2FDD404B10332360102D16DD1023C3
:104010006360299B10332993289B01332893072B36
:1040200001DC083408E00D980C9927AA02F036F854
:10403000002800D0D2E134AC103DE3E7299A289B58
:1040400065600133AD1829952893072B01DC0834EE
:1040500008E00D980C9927AA02F020F8002800D05B
:10406000BCE134AC0E9D2560109D656029982B182D
:10407000CEE00E9D10980E99119A2D180A956D1A82
:10408000954200DD151C002D15DD0E9B299823603F
:104090002B182993289B656001332893072B01DC9B
:1040A000083408E00D980C9927AA01F0F7FF0028C2
:1040B00000D093E134ACEB43DB1711991D404D1B4D
:1040C000002D39DD104B10332360102D20DD10231F
:1040D0006360299B10332993289B01332893072B76
:1040E00001DC083408E00D980C9927AA01F0D6FFEE
:1040F000002800D072E134AC103DE3E7C046C04672
:104100000000000000000000BA7C00000C7D0000F0
:10411000299A289B65600133AD1829952893072BB0
:1041200001DC083408E00D980C9927AA01F0B6FFCD
:10413000002800D052E134AC0E9D119821992D1821
:104140000E95109DA94201DBF00716D51A9D2998FE
:104150002560199D2B182993289B656001332893AE
:10416000072B01DC083408E00D980C9927AA01F010
:1041700095FF002800D031E134AC109D21980A99B8
:104180000E9A2B1A8D1A9D4200DD1D1C002D15DD87
:104190000E9B299823602B182993289B6560013377
:1041A0002893072B01DC083408E00D980C9927AA06
:1041B00001F074FF002800D010E134ACEB432A1C5E
:1041C0002198109DDB171A402B1A9D1A002D00DC38
:1041D000B2E0894B10332360102D16DD102363608D
:1041E000299B10332993289B01332893072B01DC4B
:1041F000083408E00D980C9927AA01F04FFF002819
:1042000000D0EBE034AC103DE3E7299965606B1812
:104210002993289B01332893072B00DC8BE00D9812
:104220000C9927AA01F03AFF002800D0D6E034AC60
:1042300082E0109D012D02DC01231E426FD001237C
:104240006360299B0E9D01332993289B25600133D0
:104250002893072B01DC083408E00D980C9927AA55
:1042600001F01CFF002800D0B8E034AC1A9D29985A
:104270002560199D2B182993289B6560013328938D
:10428000072B01DC083408E00D980C9927AA01F0EF
:1042900005FF002800D0A1E034AC16981899554BC2
:1042A000534AFDF7CDFC109D013D002808D10E9B1F
:1042B000656001332360299B109D013B5B1933E04E
:1042C000002D34DD4C4B10332360102D15DD1023F1
:1042D0006360299B10332993289B01332893072B74
:1042E00001DC083407E00D980C9927AA01F0D6FEEE
:1042F000002873D134AC103DE4E7299865602D188F
:104300002995289B01332893072B0FDD0D980C99D5
:1043100027AA01F0C3FE002860D134AC07E00E9D4F
:104320006360299B256001332993EAE7083423ABB6
:1043300023601C9D99E6083471070BD4139B149DD0
:10434000AB4200DA2B1C179D2998ED181795002811
:1043500037D02FE01499139A8D1A002DEEDD264BDD
:104360002360102D15DD10236360299B10332993E2
:10437000289B01332893072B01DC083407E00D98B4
:104380000C9927AA01F08AFE002827D134AC103DF1
:10439000E5E7299B6560ED18289B29950133289353
:1043A000072BCBDD0D980C9927AA01F077FE00288A
:1043B000C4D013E00D980C9927AA01F06FFE0028D5
:1043C0000CD10023289334ACFFF799F8299D002DD8
:1043D00004D00D980C9927AA01F060FE0C9D179847
:1043E000AB89590601D50120404245B0F0BDC04619
:1043F0000000000000000000BA7C0000C046C0467B
:10440000F7B51E1C234B051C1B6801911C1CFC34BA
:10441000E06C171C002803D1A62252009818E06413
:1044200043681F2B16DD1C4B002B02D1012040429C
:104430002EE0C820400000E000BF0028F6D0E26C6B
:1044400000230260C42252004360E0648350C6220D
:10445000520083504368002D13D09C000419221C85
:1044600088321760C2277F00C2195768012199401E
:104470000F43FC345760E660022D02D1946821435B
:1044800091605A1C019F02339B0042601F50002024
:10449000FEBDC046B47C00000000000008B5034B20
:1044A000002B02D00248FEF763FF08BD00000000A9
:1044B0008133000000000000F0B589B006910B695F
:1044C0000169051C002699427FDB069C5F1E14349F
:1044D00004940499BC000919021C0B68143205915C
:1044E0001419191C013120680392FDF749FB029051
:1044F000B04238D00499039B8C46019607966246D9
:1045000004329446043A40CA0299B0B24843310C8E
:10451000029E019A71431018020C51180A0C019264
:104520001A6880B296B2079A89B2B618301A1E6815
:10453000320C521A06149219111480B21204059EFC
:104540001043079101C36645D9D2216800290AD1D9
:10455000039E043CB44201D82F6104E02168002985
:10456000FAD1013FF4E7281C069901F081FB0028ED
:104570002ADB029C039A0134049B029400241168F4
:1045800040CB88B200191468B1B2401A360C210C25
:10459000891B041409190C1480B20904059E0143F7
:1045A00002C29E42EBD2039CBB00E3181E68002EA1
:1045B0000AD1039C043BA34201D82F6104E01E688A
:1045C000002EFAD1013FF4E7029E301C09B0F0BD85
:1045D000F0B5016C9BB00790239D049205930029D0
:1045E00009D0436C01229A404B608A6001F044F983
:1045F000079C002323640598002805DA01232B601B
:1046000043005B08059301E000232B60059EBE4B31
:10461000321C1A409A4218D1BC4B229C049D236044
:10462000002D01D1360301D0B94800E0B948249CDF
:10463000002C01D100F092FDC278C31C002A00D0EA
:104640000533249D2B6000F089FD049C059DA54B3E
:10465000A34A201C291CFDF7F3FA071E0CD0229C4C
:10466000249D01232360002D01D100F074FDAA4890
:104670002860013800F072FD19AB009318AB01936C
:1046800007982B1C221C01F0E7FB73000A905B0DBE
:1046900009D0201CA14C2A03120B211C1143A04A53
:1046A00016979E181BE0189B199C1D199D4B9D4247
:1046B00009DB9D49049A9D4B6818C2405B1B101C86
:1046C0009E40304304E09A48049B401B8340181CE2
:1046D00003F04AFA974C6E1E012509191695824A75
:1046E000824B02F0D7FE824A824BFDF7BBFF824A23
:1046F000824BFDF74BFB041C301C0D1CFEF744FAEB
:104700007F4A804BFDF7AEFF021C0B1C201C291CAE
:10471000FDF73CFB041C0D1C03F0F2F9714B704AD1
:104720000690291C201CFDF791FA00280DD0069850
:10473000FEF72AFA0B1C021C291C201CFDF780FA2C
:10474000069C43424341E41A0694069C01251395B6
:10475000162C10D8784AE300D31818685968049AC0
:10476000059BFDF787FA002804D0013C002506943C
:10477000139500E0139018980024861B351C0294B2
:10478000013D099504D5099C0025644202940995D0
:10479000069C002C06DB099D12942D190024099516
:1047A0000D9407E0069C029D2D1B02956542002496
:1047B0000D951294209D0124092D24D8052D02DD8C
:1047C000043D2095002420980238032823D802F0C5
:1047D000C5FA060E0204012502E0012508E00025C5
:1047E0001095219D002D1FDD0C95089509E00025F1
:1047F00010950698219D2D180C9501350895002DD2
:1048000018DD2B1C17E0634200250C9308932095BC
:104810001094122306E001256B4210950C93089327
:1048200000251223219506E001250C9508952B1CE7
:10483000219500E00123079D00226A640422079D60
:10484000101C1430696C984204D8079D01316964CA
:104850005200F4E7281C00F0E7FF2864089D0B9045
:104860000E2D00D988E1002C00D185E1049C059D26
:1048700014941595069D002D62DD2A1C0F231A4005
:104880002D49D2008A18146855680E940F95069D1C
:104890002A4C2F110225F80617D51F401498159998
:1048A000226A636A02F0CEFA0325049005910CE0B7
:1048B000F90708D50E980F9922686368FDF7D2FEB4
:1048C0000E900F9101357F100834002FF0D104981D
:1048D00005990E9A0F9B02F0B5FA4FE0C046C0460C
:1048E0000000000000000000000000000000F83F91
:1048F00061436F63A787D23FB3C8608B288AC63FE6
:10490000FB799F501344D33F0000F07F0F27000036
:10491000177D00000E7D00000D7D00000000F03FBF
:1049200001FCFFFFEFFBFFFF120400000EFCFFFF86
:10493000EEFBFFFF000010FE387D0000287E000027
:10494000069C02256742002F1AD00F233B40CC4A19
:10495000DB00D318149815991A685B68FDF782FE7E
:10496000C84E3F11002F09D0FA0704D5326873688A
:104970000135FDF777FE7F100836F3E704900591C7
:10498000139C002C1ED0049E059FB44BB24A301CD1
:10499000391CFDF75BF9002814D0089C002C11D0BD
:1049A0000C9C002C00DCE3E0069C301C013C391C14
:1049B000AB4AAC4B1194FDF755FE013504900591BF
:1049C0000C9C02E0069C1194089C281C049E059FE8
:1049D0000E94FEF7D9F8321C3B1CFDF743FEA24AA9
:1049E000A24BFDF7D3F9041CA74808180E990490B0
:1049F000051C00291BD19E4A9E4B301C391C02F01D
:104A000049FD221C049B061C0F1CFDF733F90028EE
:104A100000D05CE2221C8025049C2D06301C391C31
:104A20006319FDF713F9002800D047E2A0E00E9AC1
:104A3000934B013A1098D2009B18002849D01A686D
:104A40005B688D488D4902F0FDF92B1C221C02F099
:104A500021FD049005910B9D391C301C03F050F88A
:104A6000041CFEF791F8021C0B1C301C391C02F0D0
:104A700011FD01356B1E30341C70049A059B061C19
:104A80000F1CFDF7E3F8002800D053E3321C3B1C59
:104A90007249714802F0FEFC049A059BFDF7D6F8B6
:104AA000002800D0CBE00B9C2B1B0E9CA3425FDAAE
:104AB000049805996A4A6B4BFDF7D4FD684A694B27
:104AC00004900591301C391CFDF7CCFD061C0F1C11
:104AD000C2E718685968221C2B1CFDF7C3FD0B9C0C
:104AE0000E9D0490059165191795391C301C03F033
:104AF00007F8051CFEF748F8021C0B1C301C391C7B
:104B000002F0C8FC30352570179D0134061C0F1CBF
:104B1000AC4226D10E980B9C574A584B2518049846
:104B20000599FDF733F9021C0B1C301C391CFDF7ED
:104B3000A1F8002800D082E0049A059B4E484F4916
:104B400002F0A8FC021C0B1C301C391CFDF77EF87F
:104B500000280DD06B1E1A78302A00D0EAE21D1C06
:104B6000F8E73F4A3F4BFDF77DFD061C0F1CBCE7F5
:104B7000149C159D04940595199B002B00DA9FE069
:104B8000069D0E2D00DD9BE03D4AEB00D3181C680E
:104B90005D6802940395219D002D14DA089C002C79
:104BA00011DC00D08CE1324A324B02980399FDF7B8
:104BB00059FD049A059BFDF767F8089F3E1C0028E5
:104BC00000D07FE187E10B9D049E059F029A039B25
:104BD000301C391C02F036F902F092FF041CFDF77C
:104BE000D3FF029A039BFDF73DFD021C0B1C301CFA
:104BF000391C02F04FFC0135021C201C30300B1C0C
:104C0000691E08700B98291A0898814248D1101C17
:104C1000191CFDF7BBF8029A039B061C0F1CFDF73D
:104C200029F800280DD1301C391C029A039BFDF78E
:104C300007F8002800D17FE2E10702D47CE2119C52
:104C400006946B1E1A78392A26D10B9CA3421DD0DC
:104C50001D1CF6E7C046C046000000000000F03F03
:104C600000000000000024400000000000001C4084
:104C70000000000000001440000000000000E03FC1
:104C8000387D0000287E00000000C0FC069C302219
:104C9000013406940B9C22701A7801321A704BE290
:104CA000101C191CC94BC84AFDF7DCFCC84AC94B8B
:104CB000061C0F1CFCF7C4FF002800D186E73BE26E
:104CC000109D002D31D0209C012C0BDC169D002D59
:104CD00002D0C1481B1802E0189936235B1A0D9DBB
:104CE000029C16E0089D0D9C013DAC4201DB651B5A
:104CF00006E00D9C0D952B1B129C0025E4181294C8
:104D0000089C002C03DA02980023041B01E0029C9B
:104D1000089B0299099AC9180291D2180798012193
:104D2000099200F07AFE061C02E00D9D029C109E86
:104D3000002C0CD0099B002B09DDA34200DD231CB5
:104D400002980999C01AC91A0290E41A09910D9A99
:104D5000002A21DD109B002B18D0002D10DD311C06
:104D60002A1C079800F0F1FE061C311C0A9A0798CD
:104D700000F05CFE0A99071C079800F07DFD0A9779
:104D80000D98421B08D007980A9902E007980A99E3
:104D90000D9A00F0DAFE0A900798012100F03DFE1E
:104DA000129D071C002D05DD391C07982A1C00F0F8
:104DB000CCFE071C20980025012810DC0499A9428C
:104DC0000DD1059A1303AB4209D1844B134206D08F
:104DD000029D01350295099D01350995012512991C
:104DE0000120002908D03B6903339B00FB18586859
:104DF00000F0CAFD2023181A099A1F2380181840B2
:104E00000DD020231B1A042B06DD1C23181A029B2D
:104E100024181B18029308E0042B08D0181C0299D0
:104E20001C300918099A0291241812180992029B41
:104E3000002B05DD07980A991A1C00F0C7FE0A909E
:104E40000998002805DD391C0798099A00F0BEFE74
:104E5000071C139900291BD00A98391C00F008FF81
:104E6000002815DA069A0023013A069207980A9953
:104E70000A2200F00BFD0C9B0A9010980893002862
:104E800006D0311C07980A22002300F0FFFC061C04
:104E9000089900292ADC209A022A27DD002911D14D
:104EA000391C07980522089B00F0F0FC071C391CF0
:104EB0000A9800F0DDFE00280DDC03E00E9F00E004
:104EC00000273E1C219C0B9DE44306940BE0119DA2
:104ED0000E9F06953E1C0B9C31232370069C0B9D58
:104EE000013401350694029600260FE1109800283F
:104EF00000D1C5E0002C05DD311C0798221C00F014
:104F000065FE061C0296002D12D07168079800F00D
:104F10008BFC3269311C0232041C92000C310C30C3
:104F2000FEF768FA0798211C012200F04FFE02905C
:104F30000B9C089D231C013B5B1909941093391CA1
:104F40000A98FFF7B9FA311C0D90041C0A9800F07A
:104F50008FFE391C0C90029A079800F0A4FE051CE5
:104F6000C0683034002805D10A98291C00F080FE62
:104F7000089001E001210891291C079800F07CFCB1
:104F8000089B209D2B430DD104980123034209D196
:104F9000392C44D00C9D002D01DD0D9C3134099D30
:104FA000013544E00C9D002D03DA089D002D17DC2F
:104FB00028E00C9B209D2B4329D104980123034218
:104FC00025D1F2E7C046C0460000000000002440A2
:104FD0000000000000000000330400000000F07F2B
:104FE0000A990798012200F0F1FD391C0A9000F09F
:104FF0003FFE002802DC05D1E10703D5392C0ED095
:105000000D9C3134099D099A013514707EE0099D8B
:1050100001350C95089D002D0CDD392C05D1099D1D
:10502000099C3923013523705BE00C9D01340998FC
:1050300004706BE00999109A0C9D0C7091423DD060
:105040000A990A220023079800F020FC029C0A908B
:10505000311C07980A220023A64204D100F016FC56
:10506000061C029009E000F011FC0299061C0A22BD
:105070000798002300F00AFC02900C9D09955EE75A
:105080000B9D391C0A98FFF717FA041C30340B9853
:1050900008992C7001352B1A8B4207DB0B1E00DCA4
:1050A00001230B9A0296D518002607E007980A9963
:1050B0000A22002300F0EAFB0A90E2E70A99079827
:1050C000012200F083FD391C0A9000F0D1FD002878
:1050D00007DC15D1E30704D412E00B9CA34205D0F2
:1050E0001D1C6B1E1A78392AF7D006E0069C312366
:1050F000013406940B9C237008E001321A7005E01D
:105100006B1E1A78302A01D11D1CF9E70798391C4B
:1051100000F0B2FB029C002C0ED0002E05D0A6425F
:1051200003D00798311C00F0A7FB0798029900F004
:10513000A3FB01E0119C069407980A9900F09CFBE0
:1051400000232B70069B229C01332360249C002C9F
:1051500003D0256001E0024800E00B981BB0F0BDD1
:105160000C7D0000C046C046F8B50D1C041C00F0C4
:1051700058FB204E204AB3685F6803239F437D1B82
:10518000AD182D0B1D4B013D2D039D4204DC201C51
:1051900000F048FB00202BE0201C002100F05AFF0B
:1051A000B268D3199842F2D16942201C00F052FF34
:1051B000013010D1201C002100F04CFFB368C21A4E
:1051C0000F2AE4DD0E490968401A0E4908600121E2
:1051D0000A435A60DBE7B3687F1B012637435F60F1
:1051E000084B201C1A68551B1D6000F01BFB301C6F
:1051F000F8BDC046B4040020EF0F0000FF0F000010
:10520000BC08002030090020F7B5041C0D1E00D199
:10521000AAE000F006FB291C08394F6801203B1C5E
:105220008343C818466803229643504A9568AC46A3
:1052300001252F4060451AD1F318002F06D10868C8
:10524000091A8D681B18C868E8608560012018433A
:1052500048609160464A1268934204D3454B201C33
:105260001968FFF781FF201C00F0DCFA7CE00025C4
:1052700046600195AF420DD10F680825C91BDB19A7
:105280008F68AD18AF4203D0CD68FD60AF6001E01C
:105290000125019587197D6801273D4210D1019DA7
:1052A0009B198668002D08D1334DAE4205D1F160BF
:1052B000B1600197CE608E6002E0C068F0608660E9
:1052C0000120061C019D1E434E60CB50002DCAD10B
:1052D0002A4DAB420DD8DB089D10A8405568DB0075
:1052E00028435060D2189368CA608B609160D9607F
:1052F000B9E75D0A042D02D89809383016E0142D5C
:1053000002D8281C5B3011E0542D02D8180B6E30E7
:105310000CE0AA204000854202D8D80B773005E087
:10532000174E7E20B54201D8980C7C30C6009619E5
:10533000B568B54201D02A1C0BE0801001238340E0
:10534000181C5368184350602A1C08E09268B24247
:1053500004D0556803208543AB42F7D3D568CD60B0
:105360008A60A960D1607EE7F7BDC046B404002022
:10537000C00800202C090020BC040020FF01000010
:105380005405000038B5141C0C4D01D1281C13E045
:10539000101C0B4900F070FE0028F7D0201C291CBF
:1053A00000F06AFE0028F1D0201C064900F064FEDF
:1053B000434258414042284038BDC046B87C0000B6
:1053C0001B7D0000227D000000487047380400204B
:1053D000014B186A7047C046380400200148243049
:1053E0007047C04638040020002070470148443010
:1053F0007047C0463804002008B50A1C0349031C46
:105400000868191CFFF7BEFF08BDC0460800002051
:10541000014844307047C04638040020F0B50B1CEA
:1054200087B00B330390162B04D9072293430193C3
:1054300002D504E010240194019D8D4203D2039E05
:105440000C233360CAE1039800F0EBF9F823019FC5
:10545000FF33B04C9F4217D8FA08D300E318DD6839
:105460009D4205D12B1C6D69083302329D424AD002
:1054700068680323EA68A96898432B18CA6091609A
:10548000596801220A435CE0019D3F226B0A1ED04D
:10549000042B02D8AA09383219E0142B02D81A1C9E
:1054A0005B3214E0542B03D8019E320B6E320EE0B7
:1054B000AA225200934203D8019FFA0B773206E0EA
:1054C00095497E228B4202D8019DAA0C7C32D300E2
:1054D000E318DD689D4215D06E680321019F8E435D
:1054E000F01B0F2801DD013A0CE0002808DBEB6817
:1054F000AA68D3609A60AB1958680122024320E081
:10550000ED68E7E70132201C25690830854261D04B
:1055100069680323019E99430B1C891B0F2908DD31
:105520000122AB1916436E6063612361D8609860F5
:105530007FE060612061002905DBEB185F680122D4
:105540003A435A6057E175498B420BD8DB089910F2
:1055500001208840011C6068DB000143E3186160A2
:10556000996833E0590A042902D89809383016E0BE
:10557000142902D8081C5B3011E0542902D8180BFA
:105580006E300CE0AA204000814202D8D80B773060
:1055900005E0614E7E20B14201D8980C7C30C600F7
:1055A000A619B168B1420BD1801001238340181CA9
:1055B0006368184360600B1C08E08968B14204D03E
:1055C0004F6803208743BB42F7D3CB68EB60A960E9
:1055D0009D60CD609310012199400B1C61688B4246
:1055E00057D8194205D1032082435B000432194287
:1055F000FBD0D700E7190497381C9446C56800E033
:10560000ED680321854225D06E68019F8E43029686
:10561000F11B0F2911DD0122381C10436860AE68B0
:10562000E868EB19F06008348660E360A360DC6032
:105630009C600A435A605950DDE00029E0DB029883
:1056400001232E187168AA680B437360EB68D3605E
:105650009A60D0E00125AC44664608300E42CDD1B8
:10566000970703D162689A43626006E00499013AA1
:105670000868083904908842F2D061685B008B4268
:1056800007D8002B05D062461942B2D104325B0024
:10569000FAE7A66803237168019D99430291A94224
:1056A00003D34B1B0F2B00DD9AE0029F1C4AF71916
:1056B00005971C4F019D386892682B18013201D163
:1056C000103303E018495B181B0B1B03049303986A
:1056D000049900F0BFFC051C421C71D0059B984248
:1056E00001D2A6426CD17968049843187B60059F6B
:1056F000BD4208D12A0506D1029DA36801224419A2
:1057000014435C6052E0064A064F906801300DD1A8
:1057100095600FE0B404002054050000FF01000074
:10572000B40800202C0900200F100000059C2A1B43
:105730009B187B60072300242B40A34202D008243F
:10574000E41A2D19049980206B1840011B052418B8
:105750001B0DE41A0398211C00F07CFC421C01D1B3
:10576000281C00247968401B63187B600419254BB2
:10577000012214439D606C609E4217D0029C0F2C46
:1057800001D86A601CE0029B756807210C3B8B43C3
:105790002A401A4372600521F218516091600F2B64
:1057A00004D9311C08310398FFF72EFD164A5368BF
:1057B000D16A8B4200D9D362166BB34200D913630E
:1057C000104B019F9B685A6803239A43D31BBA422C
:1057D00001D30F2B04DC039800F024F800200FE025
:1057E0000848019A85680121019C0A436A600B43BD
:1057F0002A1982605360039800F014F8281C0830BE
:1058000007B0F0BDB40400202C090020C9B28218F2
:10581000904204D003788B4202D00130F8E7002098
:105820007047704770470000C36C70B5041C0D1CB6
:10583000002B08D0E36CAA009A18106800280BD03F
:105840000368136014E00421212201F09DF8E06454
:105850000028EFD100200EE001210E1CAE40721D89
:105860009200201C01F090F80028F3D0456086607B
:1058700000220261C26070BD002906D04A68930010
:10588000C26CD3181A680A6019607047F7B50C1C0F
:105890001E1C0D69071C143100230868013380B2F7
:1058A000504380198446060C0868000C5043301899
:1058B000060C00040190604680B28446019884443E
:1058C000604601C1AB42E8DB002E1BD0A3689D42BD
:1058D00012DB6168381C0131FFF7A6FF2269211C29
:1058E000023201900C3192000C30FDF783FD211C37
:1058F000381CFFF7C1FF019C2B1D9B00E3180135ED
:105900005E602561201CFEBDF7B5061C181C0F1C2F
:10591000083009210193141C01F034FA01230021FD
:10592000984202DD5B000131FAE7301CFFF77CFF93
:10593000089B011C436101230361092C12DD3B1C00
:10594000093300931D1C3F192B78301C303B0A2271
:10595000FFF79CFF0135011CBD42F5D1009B1F19CB
:10596000083F01E00A370924251C019B9D4209DA02
:105970003B1B5B5D301C303B0A22FFF787FF013584
:10598000011CF2E7081CFEBD0022031C010C914221
:1059900001D103041022190E01D108321B02190F84
:1059A00001D104321B01990F01D102329B00002B5F
:1059B00004DB2020590002D5501C00E0101C704769
:1059C00003680722011C1A400BD001220020134259
:1059D00022D10220034201D0D3401BE09B080B6080
:1059E0001AE098B2002801D11B0C1022D8B200286E
:1059F00001D108321B0A180701D104321B0998078C
:105A000001D102329B08D80704D45B082020002B68
:105A100002D001320B60101C704710B50C1C012124
:105A2000FFF702FF01234461036110BDF0B50C1CB8
:105A3000151C096912698BB0914202DA231C2C1CD7
:105A40001D1C27692E69A268BB19616802939342E5
:105A500000DD0131FFF7E8FE031C039002981433C8
:105A600082009A18191C914202D2002001C1FAE763
:105A700014351434BF00AC46B600E71966440494EC
:105A800007970996099EB44556D265462D88059517
:105A9000002D1FD0049C191C00200F6840CCBFB201
:105AA000059D0697B7B26F43069D360CEF193F1858
:105AB00008680891050C05984643380CAD192D1857
:105AC000280CBFB22D043D4320C1079DAC42E4D356
:105AD000089E706067467D88002D22D000261868D9
